{
  "_format": "hh-sol-artifact-1",
  "contractName": "WavePortal",
  "sourceName": "contracts/WavePortal.sol",
  "abi": [
    {
      "inputs": [],
      "stateMutability": "nonpayable",
      "type": "constructor"
    },
    {
      "anonymous": false,
      "inputs": [
        {
          "indexed": true,
          "internalType": "address",
          "name": "from",
          "type": "address"
        },
        {
          "indexed": false,
          "internalType": "uint256",
          "name": "timestamp",
          "type": "uint256"
        },
        {
          "indexed": false,
          "internalType": "string",
          "name": "message",
          "type": "string"
        }
      ],
      "name": "NewWave",
      "type": "event"
    },
    {
      "inputs": [],
      "name": "getAllWaves",
      "outputs": [
        {
          "components": [
            {
              "internalType": "address",
              "name": "waver",
              "type": "address"
            },
            {
              "internalType": "string",
              "name": "message",
              "type": "string"
            },
            {
              "internalType": "uint256",
              "name": "timestamp",
              "type": "uint256"
            }
          ],
          "internalType": "struct WavePortal.Wave[]",
          "name": "",
          "type": "tuple[]"
        }
      ],
      "stateMutability": "view",
      "type": "function"
    },
    {
      "inputs": [],
      "name": "getTotalWaves",
      "outputs": [
        {
          "internalType": "uint256",
          "name": "",
          "type": "uint256"
        }
      ],
      "stateMutability": "view",
      "type": "function"
    },
    {
      "inputs": [
        {
          "internalType": "address",
          "name": "",
          "type": "address"
        }
      ],
      "name": "lastWavedAt",
      "outputs": [
        {
          "internalType": "uint256",
          "name": "",
          "type": "uint256"
        }
      ],
      "stateMutability": "view",
      "type": "function"
    },
    {
      "inputs": [
        {
          "internalType": "uint256",
          "name": "_newCooldown",
          "type": "uint256"
        }
      ],
      "name": "setWaveCooldown",
      "outputs": [],
      "stateMutability": "nonpayable",
      "type": "function"
    },
    {
      "inputs": [
        {
          "internalType": "address",
          "name": "",
          "type": "address"
        }
      ],
      "name": "userWaveCount",
      "outputs": [
        {
          "internalType": "uint256",
          "name": "",
          "type": "uint256"
        }
      ],
      "stateMutability": "view",
      "type": "function"
    },
    {
      "inputs": [
        {
          "internalType": "string",
          "name": "_message",
          "type": "string"
        }
      ],
      "name": "wave",
      "outputs": [],
      "stateMutability": "nonpayable",
      "type": "function"
    },
    {
      "inputs": [],
      "name": "waveCooldown",
      "outputs": [
        {
          "internalType": "uint256",
          "name": "",
          "type": "uint256"
        }
      ],
      "stateMutability": "view",
      "type": "function"
    }
  ],
  "bytecode": "0x608060405261038460035534801561001657600080fd5b5061005f6040518060400160405280601981526020017f57652068617665206265656e20636f6e7374727563746564210000000000000081525061007660201b61063a1760201c565b600280546001600160a01b03191633179055610136565b6100bd8160405160240161008a91906100e1565b60408051601f198184030181529190526020810180516001600160e01b0390811663104c13eb60e21b179091526100c016565b50565b80516a636f6e736f6c652e6c6f67602083016000808483855afa5050505050565b600060208083528351808285015260005b8181101561010e578581018301518582016040015282016100f2565b81811115610120576000604083870101525b50601f01601f1916929092016040019392505050565b610a83806101456000396000f3fe608060405234801561001057600080fd5b506004361061007d5760003560e01c80639a2cdc081161005b5780639a2cdc08146100d3578063a42a4663146100db578063bd43a908146100fb578063c5fa4ee41461011057600080fd5b8063449d46c0146100825780635fe4403e14610097578063812e8016146100b3575b600080fd5b610095610090366004610799565b610123565b005b6100a060035481565b6040519081526020015b60405180910390f35b6100a06100c136600461084a565b60066020526000908152604090205481565b6000546100a0565b6100a06100e936600461084a565b60056020526000908152604090205481565b6101036104b3565b6040516100aa91906108c7565b61009561011e366004610953565b6105c4565b6003543360009081526005602052604090205442916101419161096c565b1061017e5760405162461bcd60e51b8152602060048201526008602482015267576169742031356d60c01b60448201526064015b60405180910390fd5b60008151116101cf5760405162461bcd60e51b815260206004820152601760248201527f4d6573736167652063616e6e6f7420626520656d7074790000000000000000006044820152606401610175565b33600090815260056020526040812042905580546001919081906101f490849061096c565b909155505033600090815260066020526040812080546001929061021990849061096c565b909155505060408051808201909152600d81526c2573206861732077617665642160981b602082015261024c9033610680565b60408051606081018252338152602080820184815242938301939093526004805460018101825560009190915282517f8a35acfbc15ff81a39ae7d344fd709f28e8600b4aa8c65c6b64bfe7fe36bd19b600390920291820180546001600160a01b0319166001600160a01b03909216919091178155935180519394936102fb937f8a35acfbc15ff81a39ae7d344fd709f28e8600b4aa8c65c6b64bfe7fe36bd19c9093019291909101906106ea565b506040918201516002909101553360009081526006602052205461032190600590610992565b61046d5761034e60405180604001604052806007815260200166257320776f6e2160c81b81525033610680565b655af3107a4000478111156103c25760405162461bcd60e51b815260206004820152603460248201527f547279696e6720746f207769746864726177206d6f7265206d6f6e657920746860448201527330b7103a34329031b7b73a3930b1ba103430b99760611b6064820152608401610175565b604051600090339083908381818185875af1925050503d8060008114610404576040519150601f19603f3d011682016040523d82523d6000602084013e610409565b606091505b505090508061046a5760405162461bcd60e51b815260206004820152602760248201527f4661696c656420746f207769746864726177206d6f6e65792066726f6d20636f604482015266373a3930b1ba1760c91b6064820152608401610175565b50505b336001600160a01b03167f5f7e16dc676677766a70e9c5628aa6c54ddb8b6e5188e2ae1e1f17f1ffbea71642836040516104a89291906109b4565b60405180910390a250565b60606004805480602002602001604051908101604052809291908181526020016000905b828210156105bb57600084815260209081902060408051606081019091526003850290910180546001600160a01b031682526001810180549293919291840191610520906109d5565b80601f016020809104026020016040519081016040528092919081815260200182805461054c906109d5565b80156105995780601f1061056e57610100808354040283529160200191610599565b820191906000526020600020905b81548152906001019060200180831161057c57829003601f168201915b50505050508152602001600282015481525050815260200190600101906104d7565b50505050905090565b6002546001600160a01b031633146106355760405162461bcd60e51b815260206004820152602e60248201527f4f6e6c792074686520636f6e7472616374206f776e65722063616e2063616c6c60448201526d103a3434b990333ab731ba34b7b760911b6064820152608401610175565b600355565b61067d8160405160240161064e9190610a10565b60408051601f198184030181529190526020810180516001600160e01b031663104c13eb60e21b1790526106c9565b50565b6106c58282604051602401610696929190610a23565b60408051601f198184030181529190526020810180516001600160e01b031663319af33360e01b1790526106c9565b5050565b80516a636f6e736f6c652e6c6f67602083016000808483855afa5050505050565b8280546106f6906109d5565b90600052602060002090601f016020900481019282610718576000855561075e565b82601f1061073157805160ff191683800117855561075e565b8280016001018555821561075e579182015b8281111561075e578251825591602001919060010190610743565b5061076a92915061076e565b5090565b5b8082111561076a576000815560010161076f565b634e487b7160e01b600052604160045260246000fd5b6000602082840312156107ab57600080fd5b813567ffffffffffffffff808211156107c357600080fd5b818401915084601f8301126107d757600080fd5b8135818111156107e9576107e9610783565b604051601f8201601f19908116603f0116810190838211818310171561081157610811610783565b8160405282815287602084870101111561082a57600080fd5b826020860160208301376000928101602001929092525095945050505050565b60006020828403121561085c57600080fd5b81356001600160a01b038116811461087357600080fd5b9392505050565b6000815180845260005b818110156108a057602081850181015186830182015201610884565b818111156108b2576000602083870101525b50601f01601f19169290920160200192915050565b60006020808301818452808551808352604092508286019150828160051b87010184880160005b8381101561094557888303603f19018552815180516001600160a01b03168452878101516060898601819052906109278287018261087a565b928901519589019590955250948701949250908601906001016108ee565b509098975050505050505050565b60006020828403121561096557600080fd5b5035919050565b6000821982111561098d57634e487b7160e01b600052601160045260246000fd5b500190565b6000826109af57634e487b7160e01b600052601260045260246000fd5b500690565b8281526040602082015260006109cd604083018461087a565b949350505050565b600181811c908216806109e957607f821691505b60208210811415610a0a57634e487b7160e01b600052602260045260246000fd5b50919050565b602081526000610873602083018461087a565b604081526000610a36604083018561087a565b905060018060a01b0383166020830152939250505056fea26469706673582212209d908e23365e1a59672de659c3308f75bda8ec758ff6c9db11484a819729378e64736f6c63430008090033",
  "linkReferences": {},
  "deployedLinkReferences": {}
}