{
  "_format": "hh-sol-artifact-1",
  "contractName": "WavePortal",
  "sourceName": "contracts/WavePortal.sol",
  "abi": [
    {
      "inputs": [],
      "stateMutability": "payable",
      "type": "constructor"
    },
    {
      "anonymous": false,
      "inputs": [
        {
          "indexed": false,
          "internalType": "uint256",
          "name": "newCooldown",
          "type": "uint256"
        }
      ],
      "name": "CooldownChanged",
      "type": "event"
    },
    {
      "anonymous": false,
      "inputs": [
        {
          "indexed": true,
          "internalType": "address",
          "name": "from",
          "type": "address"
        },
        {
          "indexed": false,
          "internalType": "uint256",
          "name": "timestamp",
          "type": "uint256"
        },
        {
          "indexed": false,
          "internalType": "string",
          "name": "message",
          "type": "string"
        }
      ],
      "name": "NewWave",
      "type": "event"
    },
    {
      "anonymous": false,
      "inputs": [
        {
          "indexed": true,
          "internalType": "address",
          "name": "previousOwner",
          "type": "address"
        },
        {
          "indexed": true,
          "internalType": "address",
          "name": "newOwner",
          "type": "address"
        }
      ],
      "name": "OwnershipTransferred",
      "type": "event"
    },
    {
      "inputs": [],
      "name": "getAllWaves",
      "outputs": [
        {
          "components": [
            {
              "internalType": "address",
              "name": "waver",
              "type": "address"
            },
            {
              "internalType": "string",
              "name": "message",
              "type": "string"
            },
            {
              "internalType": "uint256",
              "name": "timestamp",
              "type": "uint256"
            }
          ],
          "internalType": "struct WavePortal.Wave[]",
          "name": "",
          "type": "tuple[]"
        }
      ],
      "stateMutability": "view",
      "type": "function"
    },
    {
      "inputs": [
        {
          "internalType": "address",
          "name": "",
          "type": "address"
        }
      ],
      "name": "lastWavedAt",
      "outputs": [
        {
          "internalType": "uint256",
          "name": "",
          "type": "uint256"
        }
      ],
      "stateMutability": "view",
      "type": "function"
    },
    {
      "inputs": [],
      "name": "owner",
      "outputs": [
        {
          "internalType": "address",
          "name": "",
          "type": "address"
        }
      ],
      "stateMutability": "view",
      "type": "function"
    },
    {
      "inputs": [],
      "name": "renounceOwnership",
      "outputs": [],
      "stateMutability": "nonpayable",
      "type": "function"
    },
    {
      "inputs": [
        {
          "internalType": "uint256",
          "name": "_newCooldown",
          "type": "uint256"
        }
      ],
      "name": "setWaveCooldown",
      "outputs": [],
      "stateMutability": "nonpayable",
      "type": "function"
    },
    {
      "inputs": [],
      "name": "totalWaves",
      "outputs": [
        {
          "internalType": "uint256",
          "name": "",
          "type": "uint256"
        }
      ],
      "stateMutability": "view",
      "type": "function"
    },
    {
      "inputs": [
        {
          "internalType": "address",
          "name": "newOwner",
          "type": "address"
        }
      ],
      "name": "transferOwnership",
      "outputs": [],
      "stateMutability": "nonpayable",
      "type": "function"
    },
    {
      "inputs": [
        {
          "internalType": "address",
          "name": "",
          "type": "address"
        }
      ],
      "name": "userWaveCount",
      "outputs": [
        {
          "internalType": "uint256",
          "name": "",
          "type": "uint256"
        }
      ],
      "stateMutability": "view",
      "type": "function"
    },
    {
      "inputs": [
        {
          "internalType": "string",
          "name": "_message",
          "type": "string"
        }
      ],
      "name": "wave",
      "outputs": [],
      "stateMutability": "nonpayable",
      "type": "function"
    },
    {
      "inputs": [],
      "name": "waveCooldown",
      "outputs": [
        {
          "internalType": "uint256",
          "name": "",
          "type": "uint256"
        }
      ],
      "stateMutability": "view",
      "type": "function"
    }
  ],
  "bytecode": "0x60806040526103846003556200002a6200001e6200007b60201b60201c565b6200008360201b60201c565b620000756040518060400160405280601981526020017f57652068617665206265656e20636f6e737472756374656421000000000000008152506200014760201b620009231760201c565b620002d1565b600033905090565b60008060009054906101000a900473ffffffffffffffffffffffffffffffffffffffff169050816000806101000a81548173ffffffffffffffffffffffffffffffffffffffff021916908373ffffffffffffffffffffffffffffffffffffffff1602179055508173ffffffffffffffffffffffffffffffffffffffff168173ffffffffffffffffffffffffffffffffffffffff167f8be0079c531659141344cd1fd0a4f28419497f9722a3daafe3b4186f6b6457e060405160405180910390a35050565b620001e7816040516024016200015e9190620002ad565b6040516020818303038152906040527f41304fac000000000000000000000000000000000000000000000000000000007bffffffffffffffffffffffffffffffffffffffffffffffffffffffff19166020820180517bffffffffffffffffffffffffffffffffffffffffffffffffffffffff8381831617835250505050620001ea60201b60201c565b50565b60008151905060006a636f6e736f6c652e6c6f679050602083016000808483855afa5050505050565b600081519050919050565b600082825260208201905092915050565b60005b838110156200024f57808201518184015260208101905062000232565b60008484015250505050565b6000601f19601f8301169050919050565b6000620002798262000213565b6200028581856200021e565b9350620002978185602086016200022f565b620002a2816200025b565b840191505092915050565b60006020820190508181036000830152620002c981846200026c565b905092915050565b61185480620002e16000396000f3fe608060405234801561001057600080fd5b506004361061009e5760003560e01c80638da5cb5b116100665780638da5cb5b14610135578063a42a466314610153578063bd43a90814610183578063c5fa4ee4146101a1578063f2fde38b146101bd5761009e565b8063291bcab3146100a3578063449d46c0146100c15780635fe4403e146100dd578063715018a6146100fb578063812e801614610105575b600080fd5b6100ab6101d9565b6040516100b89190610bfa565b60405180910390f35b6100db60048036038101906100d69190610d6f565b6101df565b005b6100e5610693565b6040516100f29190610bfa565b60405180910390f35b610103610699565b005b61011f600480360381019061011a9190610e16565b6106ad565b60405161012c9190610bfa565b60405180910390f35b61013d6106c5565b60405161014a9190610e52565b60405180910390f35b61016d60048036038101906101689190610e16565b6106ee565b60405161017a9190610bfa565b60405180910390f35b61018b610706565b604051610198919061101c565b60405180910390f35b6101bb60048036038101906101b6919061106a565b610857565b005b6101d760048036038101906101d29190610e16565b6108a0565b005b60015481565b42610234600354600560003373ffffffffffffffffffffffffffffffffffffffff1673ffffffffffffffffffffffffffffffffffffffff168152602001908152602001600020546109bc90919063ffffffff16565b10610274576040517f08c379a000000000000000000000000000000000000000000000000000000000815260040161026b906110f4565b60405180910390fd5b60008151116102b8576040517f08c379a00000000000000000000000000000000000000000000000000000000081526004016102af90611160565b60405180910390fd5b42600560003373ffffffffffffffffffffffffffffffffffffffff1673ffffffffffffffffffffffffffffffffffffffff16815260200190815260200160002081905550610311600180546109bc90919063ffffffff16565b60018190555061036a6001600660003373ffffffffffffffffffffffffffffffffffffffff1673ffffffffffffffffffffffffffffffffffffffff168152602001908152602001600020546109bc90919063ffffffff16565b600660003373ffffffffffffffffffffffffffffffffffffffff1673ffffffffffffffffffffffffffffffffffffffff168152602001908152602001600020819055506103ec6040518060400160405280600d81526020017f2573206861732077617665642100000000000000000000000000000000000000815250336109d2565b600460405180606001604052803373ffffffffffffffffffffffffffffffffffffffff16815260200183815260200142815250908060018154018082558091505060019003906000526020600020906003020160009091909190915060008201518160000160006101000a81548173ffffffffffffffffffffffffffffffffffffffff021916908373ffffffffffffffffffffffffffffffffffffffff16021790555060208201518160010190816104a4919061138c565b5060408201518160020155505060006005600660003373ffffffffffffffffffffffffffffffffffffffff1673ffffffffffffffffffffffffffffffffffffffff168152602001908152602001600020546104ff919061148d565b03610640576105436040518060400160405280600781526020017f257320776f6e2100000000000000000000000000000000000000000000000000815250336109d2565b6000655af3107a4000905047811115610591576040517f08c379a00000000000000000000000000000000000000000000000000000000081526004016105889061150a565b60405180910390fd5b60003373ffffffffffffffffffffffffffffffffffffffff16826040516105b79061155b565b60006040518083038185875af1925050503d80600081146105f4576040519150601f19603f3d011682016040523d82523d6000602084013e6105f9565b606091505b505090508061063d576040517f08c379a0000000000000000000000000000000000000000000000000000000008152600401610634906115e2565b60405180910390fd5b50505b3373ffffffffffffffffffffffffffffffffffffffff167f5f7e16dc676677766a70e9c5628aa6c54ddb8b6e5188e2ae1e1f17f1ffbea716428360405161068892919061163b565b60405180910390a250565b60035481565b6106a1610a6e565b6106ab6000610aec565b565b60066020528060005260406000206000915090505481565b60008060009054906101000a900473ffffffffffffffffffffffffffffffffffffffff16905090565b60056020528060005260406000206000915090505481565b60606004805480602002602001604051908101604052809291908181526020016000905b8282101561084e57838290600052602060002090600302016040518060600160405290816000820160009054906101000a900473ffffffffffffffffffffffffffffffffffffffff1673ffffffffffffffffffffffffffffffffffffffff1673ffffffffffffffffffffffffffffffffffffffff1681526020016001820180546107b3906111af565b80601f01602080910402602001604051908101604052809291908181526020018280546107df906111af565b801561082c5780601f106108015761010080835404028352916020019161082c565b820191906000526020600020905b81548152906001019060200180831161080f57829003601f168201915b505050505081526020016002820154815250508152602001906001019061072a565b50505050905090565b61085f610a6e565b806003819055507faa382e040a4d9efeb5a813fb9d768cb574053b0dfd7cdf78936a29006e0a7a1c816040516108959190610bfa565b60405180910390a150565b6108a8610a6e565b600073ffffffffffffffffffffffffffffffffffffffff168173ffffffffffffffffffffffffffffffffffffffff1603610917576040517f08c379a000000000000000000000000000000000000000000000000000000000815260040161090e906116dd565b60405180910390fd5b61092081610aec565b50565b6109b98160405160240161093791906116fd565b6040516020818303038152906040527f41304fac000000000000000000000000000000000000000000000000000000007bffffffffffffffffffffffffffffffffffffffffffffffffffffffff19166020820180517bffffffffffffffffffffffffffffffffffffffffffffffffffffffff8381831617835250505050610bb0565b50565b600081836109ca919061174e565b905092915050565b610a6a82826040516024016109e8929190611782565b6040516020818303038152906040527f319af333000000000000000000000000000000000000000000000000000000007bffffffffffffffffffffffffffffffffffffffffffffffffffffffff19166020820180517bffffffffffffffffffffffffffffffffffffffffffffffffffffffff8381831617835250505050610bb0565b5050565b610a76610bd9565b73ffffffffffffffffffffffffffffffffffffffff16610a946106c5565b73ffffffffffffffffffffffffffffffffffffffff1614610aea576040517f08c379a0000000000000000000000000000000000000000000000000000000008152600401610ae1906117fe565b60405180910390fd5b565b60008060009054906101000a900473ffffffffffffffffffffffffffffffffffffffff169050816000806101000a81548173ffffffffffffffffffffffffffffffffffffffff021916908373ffffffffffffffffffffffffffffffffffffffff1602179055508173ffffffffffffffffffffffffffffffffffffffff168173ffffffffffffffffffffffffffffffffffffffff167f8be0079c531659141344cd1fd0a4f28419497f9722a3daafe3b4186f6b6457e060405160405180910390a35050565b60008151905060006a636f6e736f6c652e6c6f679050602083016000808483855afa5050505050565b600033905090565b6000819050919050565b610bf481610be1565b82525050565b6000602082019050610c0f6000830184610beb565b92915050565b6000604051905090565b600080fd5b600080fd5b600080fd5b600080fd5b6000601f19601f8301169050919050565b7f4e487b7100000000000000000000000000000000000000000000000000000000600052604160045260246000fd5b610c7c82610c33565b810181811067ffffffffffffffff82111715610c9b57610c9a610c44565b5b80604052505050565b6000610cae610c15565b9050610cba8282610c73565b919050565b600067ffffffffffffffff821115610cda57610cd9610c44565b5b610ce382610c33565b9050602081019050919050565b82818337600083830152505050565b6000610d12610d0d84610cbf565b610ca4565b905082815260208101848484011115610d2e57610d2d610c2e565b5b610d39848285610cf0565b509392505050565b600082601f830112610d5657610d55610c29565b5b8135610d66848260208601610cff565b91505092915050565b600060208284031215610d8557610d84610c1f565b5b600082013567ffffffffffffffff811115610da357610da2610c24565b5b610daf84828501610d41565b91505092915050565b600073ffffffffffffffffffffffffffffffffffffffff82169050919050565b6000610de382610db8565b9050919050565b610df381610dd8565b8114610dfe57600080fd5b50565b600081359050610e1081610dea565b92915050565b600060208284031215610e2c57610e2b610c1f565b5b6000610e3a84828501610e01565b91505092915050565b610e4c81610dd8565b82525050565b6000602082019050610e676000830184610e43565b92915050565b600081519050919050565b600082825260208201905092915050565b6000819050602082019050919050565b610ea281610dd8565b82525050565b600081519050919050565b600082825260208201905092915050565b60005b83811015610ee2578082015181840152602081019050610ec7565b60008484015250505050565b6000610ef982610ea8565b610f038185610eb3565b9350610f13818560208601610ec4565b610f1c81610c33565b840191505092915050565b610f3081610be1565b82525050565b6000606083016000830151610f4e6000860182610e99565b5060208301518482036020860152610f668282610eee565b9150506040830151610f7b6040860182610f27565b508091505092915050565b6000610f928383610f36565b905092915050565b6000602082019050919050565b6000610fb282610e6d565b610fbc8185610e78565b935083602082028501610fce85610e89565b8060005b8581101561100a5784840389528151610feb8582610f86565b9450610ff683610f9a565b925060208a01995050600181019050610fd2565b50829750879550505050505092915050565b600060208201905081810360008301526110368184610fa7565b905092915050565b61104781610be1565b811461105257600080fd5b50565b6000813590506110648161103e565b92915050565b6000602082840312156110805761107f610c1f565b5b600061108e84828501611055565b91505092915050565b600082825260208201905092915050565b7f576169742031356d000000000000000000000000000000000000000000000000600082015250565b60006110de600883611097565b91506110e9826110a8565b602082019050919050565b6000602082019050818103600083015261110d816110d1565b9050919050565b7f4d6573736167652063616e6e6f7420626520656d707479000000000000000000600082015250565b600061114a601783611097565b915061115582611114565b602082019050919050565b600060208201905081810360008301526111798161113d565b9050919050565b7f4e487b7100000000000000000000000000000000000000000000000000000000600052602260045260246000fd5b600060028204905060018216806111c757607f821691505b6020821081036111da576111d9611180565b5b50919050565b60008190508160005260206000209050919050565b60006020601f8301049050919050565b600082821b905092915050565b6000600883026112427fffffffffffffffffffffffffffffffffffffffffffffffffffffffffffffffff82611205565b61124c8683611205565b95508019841693508086168417925050509392505050565b6000819050919050565b600061128961128461127f84610be1565b611264565b610be1565b9050919050565b6000819050919050565b6112a38361126e565b6112b76112af82611290565b848454611212565b825550505050565b600090565b6112cc6112bf565b6112d781848461129a565b505050565b5b818110156112fb576112f06000826112c4565b6001810190506112dd565b5050565b601f82111561134057611311816111e0565b61131a846111f5565b81016020851015611329578190505b61133d611335856111f5565b8301826112dc565b50505b505050565b600082821c905092915050565b600061136360001984600802611345565b1980831691505092915050565b600061137c8383611352565b9150826002028217905092915050565b61139582610ea8565b67ffffffffffffffff8111156113ae576113ad610c44565b5b6113b882546111af565b6113c38282856112ff565b600060209050601f8311600181146113f657600084156113e4578287015190505b6113ee8582611370565b865550611456565b601f198416611404866111e0565b60005b8281101561142c57848901518255600182019150602085019450602081019050611407565b868310156114495784890151611445601f891682611352565b8355505b6001600288020188555050505b505050505050565b7f4e487b7100000000000000000000000000000000000000000000000000000000600052601260045260246000fd5b600061149882610be1565b91506114a383610be1565b9250826114b3576114b261145e565b5b828206905092915050565b7f496e73756666696369656e7420636f6e74726163742062616c616e6365000000600082015250565b60006114f4601d83611097565b91506114ff826114be565b602082019050919050565b60006020820190508181036000830152611523816114e7565b9050919050565b600081905092915050565b50565b600061154560008361152a565b915061155082611535565b600082019050919050565b600061156682611538565b9150819050919050565b7f4661696c656420746f207769746864726177206d6f6e65792066726f6d20636f60008201527f6e74726163742e00000000000000000000000000000000000000000000000000602082015250565b60006115cc602783611097565b91506115d782611570565b604082019050919050565b600060208201905081810360008301526115fb816115bf565b9050919050565b600061160d82610ea8565b6116178185611097565b9350611627818560208601610ec4565b61163081610c33565b840191505092915050565b60006040820190506116506000830185610beb565b81810360208301526116628184611602565b90509392505050565b7f4f776e61626c653a206e6577206f776e657220697320746865207a65726f206160008201527f6464726573730000000000000000000000000000000000000000000000000000602082015250565b60006116c7602683611097565b91506116d28261166b565b604082019050919050565b600060208201905081810360008301526116f6816116ba565b9050919050565b600060208201905081810360008301526117178184611602565b905092915050565b7f4e487b7100000000000000000000000000000000000000000000000000000000600052601160045260246000fd5b600061175982610be1565b915061176483610be1565b925082820190508082111561177c5761177b61171f565b5b92915050565b6000604082019050818103600083015261179c8185611602565b90506117ab6020830184610e43565b9392505050565b7f4f776e61626c653a2063616c6c6572206973206e6f7420746865206f776e6572600082015250565b60006117e8602083611097565b91506117f3826117b2565b602082019050919050565b60006020820190508181036000830152611817816117db565b905091905056fea264697066735822122003a14e71bc1ff4ad1c55f7c8b2e436a31f5606c513d29cdcebab87420b0414e064736f6c63430008110033",
  "linkReferences": {},
  "deployedLinkReferences": {}
}